{
  "contractName": "BSCSwapAgentImpl",
  "abi": [
    {
      "inputs": [],
      "stateMutability": "nonpayable",
      "type": "constructor"
    },
    {
      "anonymous": false,
      "inputs": [
        {
          "indexed": true,
          "internalType": "address",
          "name": "previousOwner",
          "type": "address"
        },
        {
          "indexed": true,
          "internalType": "address",
          "name": "newOwner",
          "type": "address"
        }
      ],
      "name": "OwnershipTransferred",
      "type": "event"
    },
    {
      "anonymous": false,
      "inputs": [
        {
          "indexed": true,
          "internalType": "address",
          "name": "bep20Addr",
          "type": "address"
        },
        {
          "indexed": true,
          "internalType": "bytes32",
          "name": "ethTxHash",
          "type": "bytes32"
        },
        {
          "indexed": true,
          "internalType": "address",
          "name": "toAddress",
          "type": "address"
        },
        {
          "indexed": false,
          "internalType": "uint256",
          "name": "amount",
          "type": "uint256"
        }
      ],
      "name": "SwapFilled",
      "type": "event"
    },
    {
      "anonymous": false,
      "inputs": [
        {
          "indexed": true,
          "internalType": "bytes32",
          "name": "ethRegisterTxHash",
          "type": "bytes32"
        },
        {
          "indexed": true,
          "internalType": "address",
          "name": "bep20Addr",
          "type": "address"
        },
        {
          "indexed": true,
          "internalType": "address",
          "name": "erc20Addr",
          "type": "address"
        },
        {
          "indexed": false,
          "internalType": "string",
          "name": "symbol",
          "type": "string"
        },
        {
          "indexed": false,
          "internalType": "string",
          "name": "name",
          "type": "string"
        },
        {
          "indexed": false,
          "internalType": "uint8",
          "name": "decimals",
          "type": "uint8"
        }
      ],
      "name": "SwapPairCreated",
      "type": "event"
    },
    {
      "anonymous": false,
      "inputs": [
        {
          "indexed": true,
          "internalType": "address",
          "name": "bep20Addr",
          "type": "address"
        },
        {
          "indexed": true,
          "internalType": "address",
          "name": "erc20Addr",
          "type": "address"
        },
        {
          "indexed": true,
          "internalType": "address",
          "name": "fromAddr",
          "type": "address"
        },
        {
          "indexed": false,
          "internalType": "uint256",
          "name": "amount",
          "type": "uint256"
        },
        {
          "indexed": false,
          "internalType": "uint256",
          "name": "feeAmount",
          "type": "uint256"
        }
      ],
      "name": "SwapStarted",
      "type": "event"
    },
    {
      "inputs": [],
      "name": "bep20Implementation",
      "outputs": [
        {
          "internalType": "address",
          "name": "",
          "type": "address"
        }
      ],
      "stateMutability": "view",
      "type": "function"
    },
    {
      "inputs": [],
      "name": "bep20ProxyAdmin",
      "outputs": [
        {
          "internalType": "address",
          "name": "",
          "type": "address"
        }
      ],
      "stateMutability": "view",
      "type": "function"
    },
    {
      "inputs": [
        {
          "internalType": "bytes32",
          "name": "",
          "type": "bytes32"
        }
      ],
      "name": "filledETHTx",
      "outputs": [
        {
          "internalType": "bool",
          "name": "",
          "type": "bool"
        }
      ],
      "stateMutability": "view",
      "type": "function"
    },
    {
      "inputs": [],
      "name": "owner",
      "outputs": [
        {
          "internalType": "address payable",
          "name": "",
          "type": "address"
        }
      ],
      "stateMutability": "view",
      "type": "function"
    },
    {
      "inputs": [],
      "name": "swapFee",
      "outputs": [
        {
          "internalType": "uint256",
          "name": "",
          "type": "uint256"
        }
      ],
      "stateMutability": "view",
      "type": "function"
    },
    {
      "inputs": [
        {
          "internalType": "address",
          "name": "",
          "type": "address"
        }
      ],
      "name": "swapMappingBSC2ETH",
      "outputs": [
        {
          "internalType": "address",
          "name": "",
          "type": "address"
        }
      ],
      "stateMutability": "view",
      "type": "function"
    },
    {
      "inputs": [
        {
          "internalType": "address",
          "name": "",
          "type": "address"
        }
      ],
      "name": "swapMappingETH2BSC",
      "outputs": [
        {
          "internalType": "address",
          "name": "",
          "type": "address"
        }
      ],
      "stateMutability": "view",
      "type": "function"
    },
    {
      "inputs": [
        {
          "internalType": "address",
          "name": "bep20Impl",
          "type": "address"
        },
        {
          "internalType": "uint256",
          "name": "fee",
          "type": "uint256"
        },
        {
          "internalType": "address payable",
          "name": "ownerAddr",
          "type": "address"
        },
        {
          "internalType": "address",
          "name": "bep20ProxyAdminAddr",
          "type": "address"
        }
      ],
      "name": "initialize",
      "outputs": [],
      "stateMutability": "nonpayable",
      "type": "function"
    },
    {
      "inputs": [],
      "name": "renounceOwnership",
      "outputs": [],
      "stateMutability": "nonpayable",
      "type": "function"
    },
    {
      "inputs": [
        {
          "internalType": "address payable",
          "name": "newOwner",
          "type": "address"
        }
      ],
      "name": "transferOwnership",
      "outputs": [],
      "stateMutability": "nonpayable",
      "type": "function"
    },
    {
      "inputs": [
        {
          "internalType": "uint256",
          "name": "fee",
          "type": "uint256"
        }
      ],
      "name": "setSwapFee",
      "outputs": [],
      "stateMutability": "nonpayable",
      "type": "function"
    },
    {
      "inputs": [
        {
          "internalType": "bytes32",
          "name": "ethTxHash",
          "type": "bytes32"
        },
        {
          "internalType": "address",
          "name": "erc20Addr",
          "type": "address"
        },
        {
          "internalType": "string",
          "name": "name",
          "type": "string"
        },
        {
          "internalType": "string",
          "name": "symbol",
          "type": "string"
        },
        {
          "internalType": "uint8",
          "name": "decimals",
          "type": "uint8"
        }
      ],
      "name": "createSwapPair",
      "outputs": [
        {
          "internalType": "address",
          "name": "",
          "type": "address"
        }
      ],
      "stateMutability": "nonpayable",
      "type": "function"
    },
    {
      "inputs": [
        {
          "internalType": "bytes32",
          "name": "ethTxHash",
          "type": "bytes32"
        },
        {
          "internalType": "address",
          "name": "erc20Addr",
          "type": "address"
        },
        {
          "internalType": "string",
          "name": "name",
          "type": "string"
        },
        {
          "internalType": "string",
          "name": "symbol",
          "type": "string"
        },
        {
          "internalType": "uint8",
          "name": "decimals",
          "type": "uint8"
        },
        {
          "internalType": "address",
          "name": "bep20Addr",
          "type": "address"
        }
      ],
      "name": "createSwapPairWithBep20",
      "outputs": [
        {
          "internalType": "address",
          "name": "",
          "type": "address"
        }
      ],
      "stateMutability": "nonpayable",
      "type": "function"
    },
    {
      "inputs": [
        {
          "internalType": "bytes32",
          "name": "ethTxHash",
          "type": "bytes32"
        },
        {
          "internalType": "address",
          "name": "erc20Addr",
          "type": "address"
        },
        {
          "internalType": "address",
          "name": "toAddress",
          "type": "address"
        },
        {
          "internalType": "uint256",
          "name": "amount",
          "type": "uint256"
        }
      ],
      "name": "fillETH2BSCSwap",
      "outputs": [
        {
          "internalType": "bool",
          "name": "",
          "type": "bool"
        }
      ],
      "stateMutability": "nonpayable",
      "type": "function"
    },
    {
      "inputs": [
        {
          "internalType": "address",
          "name": "bep20Addr",
          "type": "address"
        },
        {
          "internalType": "uint256",
          "name": "amount",
          "type": "uint256"
        }
      ],
      "name": "swapBSC2ETH",
      "outputs": [
        {
          "internalType": "bool",
          "name": "",
          "type": "bool"
        }
      ],
      "stateMutability": "payable",
      "type": "function"
    }
  ],
  "bytecode": "0x608060405234801561001057600080fd5b506122aa806100206000396000f3fe608060405260043610620000fe5760003560e01c806354cf2aeb11620000975780638da5cb5b11620000615780638da5cb5b146200049f578063be0ace6914620004b7578063e307b93114620004ee578063f2fde38b146200053b57620000fe565b806354cf2aeb146200040e57806360b810f1146200043857806366fec65c146200046f578063715018a6146200048757620000fe565b806334e1990711620000d957806334e199071462000267578063358394d8146200029757806336f249a314620002e45780634e2dc7f114620003e057620000fe565b80630344165a14620001035780631ba3b150146200013757806332bd6e31146200017a575b600080fd5b3480156200011057600080fd5b506200011b62000572565b604080516001600160a01b039092168252519081900360200190f35b62000166600480360360408110156200014f57600080fd5b506001600160a01b03813516906020013562000581565b604080519115158252519081900360200190f35b3480156200018757600080fd5b506200011b600480360360a0811015620001a057600080fd5b8135916001600160a01b0360208201351691810190606081016040820135600160201b811115620001d057600080fd5b820183602082011115620001e357600080fd5b803590602001918460018302840111600160201b831117156200020557600080fd5b919390929091602081019035600160201b8111156200022357600080fd5b8201836020820111156200023657600080fd5b803590602001918460018302840111600160201b831117156200025857600080fd5b91935091503560ff16620007f5565b3480156200027457600080fd5b5062000295600480360360208110156200028d57600080fd5b503562000b02565b005b348015620002a457600080fd5b506200029560048036036080811015620002bd57600080fd5b506001600160a01b0381358116916020810135916040820135811691606001351662000b63565b348015620002f157600080fd5b506200011b600480360360c08110156200030a57600080fd5b8135916001600160a01b0360208201351691810190606081016040820135600160201b8111156200033a57600080fd5b8201836020820111156200034d57600080fd5b803590602001918460018302840111600160201b831117156200036f57600080fd5b919390929091602081019035600160201b8111156200038d57600080fd5b820183602082011115620003a057600080fd5b803590602001918460018302840111600160201b83111715620003c257600080fd5b9193509150803560ff1690602001356001600160a01b031662000c53565b348015620003ed57600080fd5b5062000166600480360360208110156200040657600080fd5b503562001321565b3480156200041b57600080fd5b506200042662001336565b60408051918252519081900360200190f35b3480156200044557600080fd5b506200011b600480360360208110156200045e57600080fd5b50356001600160a01b03166200133c565b3480156200047c57600080fd5b506200011b62001357565b3480156200049457600080fd5b506200029562001366565b348015620004ac57600080fd5b506200011b6200140c565b348015620004c457600080fd5b506200011b60048036036020811015620004dd57600080fd5b50356001600160a01b03166200141b565b348015620004fb57600080fd5b5062000166600480360360808110156200051457600080fd5b508035906001600160a01b0360208201358116916040810135909116906060013562001436565b3480156200054857600080fd5b5062000295600480360360208110156200056157600080fd5b50356001600160a01b031662001635565b6005546001600160a01b031681565b60006200058e3362001734565b15620005e1576040805162461bcd60e51b815260206004820152601f60248201527f636f6e7472616374206973206e6f7420616c6c6f77656420746f207377617000604482015290519081900360640190fd5b33321462000636576040805162461bcd60e51b815260206004820152601c60248201527f6e6f2070726f787920636f6e747261637420697320616c6c6f77656400000000604482015290519081900360640190fd5b6001600160a01b038084166000908152600260205260409020541680620006a4576040805162461bcd60e51b815260206004820152601b60248201527f6e6f2073776170207061697220666f72207468697320746f6b656e0000000000604482015290519081900360640190fd5b6007543414620006f0576040805162461bcd60e51b81526020600482015260126024820152711cddd85c08199959481b9bdd08195c5d585b60721b604482015290519081900360640190fd5b60408051632770a7eb60e21b81523360048201526024810185905290516001600160a01b03861691639dc29fac91604480830192600092919082900301818387803b1580156200073f57600080fd5b505af115801562000754573d6000803e3d6000fd5b50505050346000146200079d576004546040516001600160a01b03909116903480156108fc02916000818181858888f193505050501580156200079b573d6000803e3d6000fd5b505b60408051848152346020820152815133926001600160a01b0385811693908916927f49c08ff11118922c1e8298915531eff9ef6f8b39b44b3e9952b75d47e1d0cdd0929181900390910190a460019150505b92915050565b6000620008016200173a565b6004546001600160a01b0390811691161462000853576040805162461bcd60e51b8152602060048201819052602482015260008051602062002255833981519152604482015290519081900360640190fd5b6001600160a01b038781166000908152600160205260409020541615620008b8576040805162461bcd60e51b8152602060048201526014602482015273323ab83634b1b0ba32b21039bbb0b8103830b4b960611b604482015290519081900360640190fd5b6006546005546040516000926001600160a01b03908116921690620008dd906200183f565b6001600160a01b03928316815291166020820152606060408083018290526000918301829052519182900360a0019190f08015801562000921573d6000803e3d6000fd5b50604051631de7d79760e31b815260ff851660448201526000606482018190526001608483018190523060a4840181905260c06004850190815260c485018c905294955085946001600160a01b0386169463ef3ebcb8948e948e948e948e948e94939291908190602481019060e4018b8b80828437600083820152601f01601f191690910184810383528981526020019050898980828437600081840152601f19601f8201169050808301925050509a5050505050505050505050600060405180830381600087803b158015620009f757600080fd5b505af115801562000a0c573d6000803e3d6000fd5b5050506001600160a01b03808b16600081815260016020908152604080832080549588166001600160a01b03199687168117909155808452600283529281902080549095168417909455835160ff8a1694810194909452606080855284018a9052919350918d917fcc0314763eabceb74cd3d30ae785c09bfe4e204af2088b3bfcdbbe5082133db5918b918b918f918f918d918190810160808201888880828437600083820152601f01601f191690910184810383528681526020019050868680828437600083820152604051601f909101601f1916909201829003995090975050505050505050a49998505050505050505050565b62000b0c6200173a565b6004546001600160a01b0390811691161462000b5e576040805162461bcd60e51b8152602060048201819052602482015260008051602062002255833981519152604482015290519081900360640190fd5b600755565b600054610100900460ff168062000b7f575062000b7f6200173e565b8062000b8e575060005460ff16155b62000bcb5760405162461bcd60e51b815260040180806020018281038252602e81526020018062002227602e913960400191505060405180910390fd5b600054610100900460ff1615801562000bf7576000805460ff1961ff0019909116610100171660011790555b600680546001600160a01b038088166001600160a01b0319928316179092556007869055600480548684169083161790556005805492851692909116919091179055801562000c4c576000805461ff00191690555b5050505050565b600062000c5f6200173a565b6004546001600160a01b0390811691161462000cb1576040805162461bcd60e51b8152602060048201819052602482015260008051602062002255833981519152604482015290519081900360640190fd5b6001600160a01b03888116600090815260016020526040902054161562000d16576040805162461bcd60e51b8152602060048201526014602482015273323ab83634b1b0ba32b21039bbb0b8103830b4b960611b604482015290519081900360640190fd5b6001600160a01b03828116600090815260026020526040902054161562000d7d576040805162461bcd60e51b8152602060048201526016602482015275323ab83634b1b0ba32b2103132b81918103a37b5b2b760511b604482015290519081900360640190fd5b6060826001600160a01b03166306fdde036040518163ffffffff1660e01b815260040160006040518083038186803b15801562000db957600080fd5b505afa15801562000dce573d6000803e3d6000fd5b505050506040513d6000823e601f3d908101601f19168201604052602081101562000df857600080fd5b8101908080516040519392919084600160201b82111562000e1857600080fd5b90830190602082018581111562000e2e57600080fd5b8251600160201b81118282018810171562000e4857600080fd5b82525081516020918201929091019080838360005b8381101562000e7757818101518382015260200162000e5d565b50505050905090810190601f16801562000ea55780820380516001836020036101000a031916815260200191505b5060405250505090506060836001600160a01b03166395d89b416040518163ffffffff1660e01b815260040160006040518083038186803b15801562000eea57600080fd5b505afa15801562000eff573d6000803e3d6000fd5b505050506040513d6000823e601f3d908101601f19168201604052602081101562000f2957600080fd5b8101908080516040519392919084600160201b82111562000f4957600080fd5b90830190602082018581111562000f5f57600080fd5b8251600160201b81118282018810171562000f7957600080fd5b82525081516020918201929091019080838360005b8381101562000fa857818101518382015260200162000f8e565b50505050905090810190601f16801562000fd65780820380516001836020036101000a031916815260200191505b5060405250505090506000846001600160a01b031663313ce5676040518163ffffffff1660e01b815260040160206040518083038186803b1580156200101b57600080fd5b505afa15801562001030573d6000803e3d6000fd5b505050506040513d60208110156200104757600080fd5b5051604080516020601f8d018190048102820181019092528b81529192506200108d9185918d908d90819084018382808284376000920191909152506200174492505050565b620010df576040805162461bcd60e51b815260206004820152601c60248201527f4e6f742073616d65206e616d65206265747765656e20746f6b656e7300000000604482015290519081900360640190fd5b620011218289898080601f0160208091040260200160405190810160405280939291908181526020018383808284376000920191909152506200174492505050565b62001173576040805162461bcd60e51b815260206004820152601e60248201527f4e6f742073616d652073796d626f6c206265747765656e20746f6b656e730000604482015290519081900360640190fd5b8560ff168160ff1614620011ce576040805162461bcd60e51b815260206004820181905260248201527f4e6f742073616d6520646563696d616c73206265747765656e20746f6b656e73604482015290519081900360640190fd5b84600160008d6001600160a01b03166001600160a01b0316815260200190815260200160002060006101000a8154816001600160a01b0302191690836001600160a01b031602179055508a60026000876001600160a01b03166001600160a01b0316815260200190815260200160002060006101000a8154816001600160a01b0302191690836001600160a01b031602179055508a6001600160a01b0316856001600160a01b03168d7fcc0314763eabceb74cd3d30ae785c09bfe4e204af2088b3bfcdbbe5082133db58b8b8f8f8d6040518080602001806020018460ff1660ff1681526020018381038352888882818152602001925080828437600083820152601f01601f191690910184810383528681526020019050868680828437600083820152604051601f909101601f1916909201829003995090975050505050505050a450929a9950505050505050505050565b60036020526000908152604090205460ff1681565b60075481565b6001602052600090815260409020546001600160a01b031681565b6006546001600160a01b031681565b620013706200173a565b6004546001600160a01b03908116911614620013c2576040805162461bcd60e51b8152602060048201819052602482015260008051602062002255833981519152604482015290519081900360640190fd5b6004546040516000916001600160a01b0316907f8be0079c531659141344cd1fd0a4f28419497f9722a3daafe3b4186f6b6457e0908390a3600480546001600160a01b0319169055565b6004546001600160a01b031681565b6002602052600090815260409020546001600160a01b031681565b6000620014426200173a565b6004546001600160a01b0390811691161462001494576040805162461bcd60e51b8152602060048201819052602482015260008051602062002255833981519152604482015290519081900360640190fd5b60008581526003602052604090205460ff1615620014f1576040805162461bcd60e51b81526020600482015260156024820152746574682074782066696c6c656420616c726561647960581b604482015290519081900360640190fd5b6001600160a01b0380851660009081526001602052604090205416806200155f576040805162461bcd60e51b815260206004820152601b60248201527f6e6f2073776170207061697220666f72207468697320746f6b656e0000000000604482015290519081900360640190fd5b600086815260036020526040808220805460ff1916600117905580516340c10f1960e01b81526001600160a01b038781166004830152602482018790529151918416926340c10f199260448084019382900301818387803b158015620015c457600080fd5b505af1158015620015d9573d6000803e3d6000fd5b50505050836001600160a01b031686826001600160a01b03167f3bebd9a738291e69898b5dbfadb6329b4b09fc648bdef68762928e521463abd9866040518082815260200191505060405180910390a450600195945050505050565b6200163f6200173a565b6004546001600160a01b0390811691161462001691576040805162461bcd60e51b8152602060048201819052602482015260008051602062002255833981519152604482015290519081900360640190fd5b6001600160a01b038116620016d85760405162461bcd60e51b8152600401808060200182810382526026815260200180620022016026913960400191505060405180910390fd5b6004546040516001600160a01b038084169216907f8be0079c531659141344cd1fd0a4f28419497f9722a3daafe3b4186f6b6457e090600090a3600480546001600160a01b0319166001600160a01b0392909216919091179055565b3b151590565b3390565b303b1590565b6000816040516020018082805190602001908083835b602083106200177b5780518252601f1990920191602091820191016200175a565b6001836020036101000a03801982511681845116808217855250505050505090500191505060405160208183030381529060405280519060200120836040516020018082805190602001908083835b60208310620017eb5780518252601f199092019160209182019101620017ca565b6001836020036101000a0380198251168184511680821785525050505050509050019150506040516020818303038152906040528051906020012014156200183657506001620007ef565b506000620007ef565b6109b3806200184e8339019056fe608060405234801561001057600080fd5b506040516109b33803806109b38339818101604052606081101561003357600080fd5b8151602083015160408085018051915193959294830192918464010000000082111561005e57600080fd5b90830190602082018581111561007357600080fd5b825164010000000081118282018810171561008d57600080fd5b82525081516020918201929091019080838360005b838110156100ba5781810151838201526020016100a2565b50505050905090810190601f1680156100e75780820380516001836020036101000a031916815260200191505b5060408181527f656970313936372e70726f78792e696d706c656d656e746174696f6e0000000082525190819003601c0190208693508592508491508390829060008051602061095d8339815191526000199091011461014357fe5b610155826001600160e01b0361027a16565b80511561020d576000826001600160a01b0316826040518082805190602001908083835b602083106101985780518252601f199092019160209182019101610179565b6001836020036101000a038019825116818451168082178552505050505050905001915050600060405180830381855af49150503d80600081146101f8576040519150601f19603f3d011682016040523d82523d6000602084013e6101fd565b606091505b505090508061020b57600080fd5b505b5050604080517f656970313936372e70726f78792e61646d696e000000000000000000000000008152905190819003601301902060008051602061093d8339815191526000199091011461025d57fe5b61026f826001600160e01b036102da16565b5050505050506102f2565b61028d816102ec60201b61054e1760201c565b6102c85760405162461bcd60e51b815260040180806020018281038252603681526020018061097d6036913960400191505060405180910390fd5b60008051602061095d83398151915255565b60008051602061093d83398151915255565b3b151590565b61063c806103016000396000f3fe60806040526004361061004e5760003560e01c80633659cfe6146100655780634f1ef286146100985780635c60da1b146101185780638f28397014610149578063f851a4401461017c5761005d565b3661005d5761005b610191565b005b61005b610191565b34801561007157600080fd5b5061005b6004803603602081101561008857600080fd5b50356001600160a01b03166101ab565b61005b600480360360408110156100ae57600080fd5b6001600160a01b0382351691908101906040810160208201356401000000008111156100d957600080fd5b8201836020820111156100eb57600080fd5b8035906020019184600183028401116401000000008311171561010d57600080fd5b5090925090506101e5565b34801561012457600080fd5b5061012d610292565b604080516001600160a01b039092168252519081900360200190f35b34801561015557600080fd5b5061005b6004803603602081101561016c57600080fd5b50356001600160a01b03166102cf565b34801561018857600080fd5b5061012d610389565b6101996103b4565b6101a96101a4610414565b610439565b565b6101b361045d565b6001600160a01b0316336001600160a01b031614156101da576101d581610482565b6101e2565b6101e2610191565b50565b6101ed61045d565b6001600160a01b0316336001600160a01b031614156102855761020f83610482565b6000836001600160a01b031683836040518083838082843760405192019450600093509091505080830381855af49150503d806000811461026c576040519150601f19603f3d011682016040523d82523d6000602084013e610271565b606091505b505090508061027f57600080fd5b5061028d565b61028d610191565b505050565b600061029c61045d565b6001600160a01b0316336001600160a01b031614156102c4576102bd610414565b90506102cc565b6102cc610191565b90565b6102d761045d565b6001600160a01b0316336001600160a01b031614156101da576001600160a01b0381166103355760405162461bcd60e51b815260040180806020018281038252603a815260200180610555603a913960400191505060405180910390fd5b7f7e644d79422f17c01e4894b5f4f588d331ebfa28653d42ae832dc59e38c9798f61035e61045d565b604080516001600160a01b03928316815291841660208301528051918290030190a16101d5816104c2565b600061039361045d565b6001600160a01b0316336001600160a01b031614156102c4576102bd61045d565b6103bc61045d565b6001600160a01b0316336001600160a01b0316141561040c5760405162461bcd60e51b81526004018080602001828103825260428152602001806105c56042913960600191505060405180910390fd5b6101a96101a9565b7f360894a13ba1a3210667c828492db98dca3e2076cc3735a920a3ca505d382bbc5490565b3660008037600080366000845af43d6000803e808015610458573d6000f35b3d6000fd5b7fb53127684a568b3173ae13b9f8a6016e243e63b6e8ee1178d6a717850b5d61035490565b61048b816104e6565b6040516001600160a01b038216907fbc7cd75a20ee27fd9adebab32041f755214dbc6bffa90cc0225b39da2e5c2d3b90600090a250565b7fb53127684a568b3173ae13b9f8a6016e243e63b6e8ee1178d6a717850b5d610355565b6104ef8161054e565b61052a5760405162461bcd60e51b815260040180806020018281038252603681526020018061058f6036913960400191505060405180910390fd5b7f360894a13ba1a3210667c828492db98dca3e2076cc3735a920a3ca505d382bbc55565b3b15159056fe5472616e73706172656e745570677261646561626c6550726f78793a206e65772061646d696e20697320746865207a65726f20616464726573735570677261646561626c6550726f78793a206e657720696d706c656d656e746174696f6e206973206e6f74206120636f6e74726163745472616e73706172656e745570677261646561626c6550726f78793a2061646d696e2063616e6e6f742066616c6c6261636b20746f2070726f787920746172676574a2646970667358221220231eb3d3f142bfadc157a0d77d8dd395036b7f154f7d05975e27a8e1876b0f9964736f6c63430006040033b53127684a568b3173ae13b9f8a6016e243e63b6e8ee1178d6a717850b5d6103360894a13ba1a3210667c828492db98dca3e2076cc3735a920a3ca505d382bbc5570677261646561626c6550726f78793a206e657720696d706c656d656e746174696f6e206973206e6f74206120636f6e74726163744f776e61626c653a206e6577206f776e657220697320746865207a65726f2061646472657373496e697469616c697a61626c653a20636f6e747261637420697320616c726561647920696e697469616c697a65644f776e61626c653a2063616c6c6572206973206e6f7420746865206f776e6572a2646970667358221220811dcf3f838d46b8801199dfdda6e7388aba2c93fa128339c9dc85beba845a1a64736f6c63430006040033",
  "source": "pragma solidity 0.6.4;\n\nimport \"./interfaces/ISwap.sol\";\nimport \"./interfaces/IBEP20.sol\";\nimport \"./bep20/BEP20UpgradeableProxy.sol\";\nimport './interfaces/IProxyInitialize.sol';\nimport \"openzeppelin-solidity/contracts/token/ERC20/SafeERC20.sol\";\nimport \"openzeppelin-solidity/contracts/proxy/Initializable.sol\";\nimport \"openzeppelin-solidity/contracts/GSN/Context.sol\";\n\ncontract  BSCSwapAgentImpl is Context, Initializable {\n\n    using SafeERC20 for IERC20;\n\n    mapping(address => address) public swapMappingETH2BSC;\n    mapping(address => address) public swapMappingBSC2ETH;\n    mapping(bytes32 => bool) public filledETHTx;\n\n    address payable public owner;\n    address public bep20ProxyAdmin;\n    address public bep20Implementation;\n    uint256 public swapFee;\n\n    event OwnershipTransferred(address indexed previousOwner, address indexed newOwner);\n    event SwapPairCreated(bytes32 indexed ethRegisterTxHash, address indexed bep20Addr, address indexed erc20Addr, string symbol, string name, uint8 decimals);\n    event SwapStarted(address indexed bep20Addr, address indexed erc20Addr, address indexed fromAddr, uint256 amount, uint256 feeAmount);\n    event SwapFilled(address indexed bep20Addr, bytes32 indexed ethTxHash, address indexed toAddress, uint256 amount);\n\n    constructor() public {\n    }\n\n    /**\n     * @dev Throws if called by any account other than the owner.\n     */\n    modifier onlyOwner() {\n        require(owner == _msgSender(), \"Ownable: caller is not the owner\");\n        _;\n    }\n\n    modifier notContract() {\n        require(!isContract(msg.sender), \"contract is not allowed to swap\");\n        require(msg.sender == tx.origin, \"no proxy contract is allowed\");\n       _;\n    }\n\n\n\n    function initialize(address bep20Impl, uint256 fee, address payable ownerAddr, address bep20ProxyAdminAddr) public initializer {\n        bep20Implementation = bep20Impl;\n        swapFee = fee;\n        owner = ownerAddr;\n        bep20ProxyAdmin = bep20ProxyAdminAddr;\n    }\n\n    function isContract(address addr) internal view returns (bool) {\n        uint size;\n        assembly { size := extcodesize(addr) }\n        return size > 0;\n    }\n\n    /**\n    * @dev Leaves the contract without owner. It will not be possible to call\n    * `onlyOwner` functions anymore. Can only be called by the current owner.\n    *\n    * NOTE: Renouncing ownership will leave the contract without an owner,\n    * thereby removing any functionality that is only available to the owner.\n    */\n    function renounceOwnership() public onlyOwner {\n        emit OwnershipTransferred(owner, address(0));\n        owner = address(0);\n    }\n\n    /**\n     * @dev Transfers ownership of the contract to a new account (`newOwner`).\n     * Can only be called by the current owner.\n     */\n    function transferOwnership(address payable newOwner) public onlyOwner {\n        require(newOwner != address(0), \"Ownable: new owner is the zero address\");\n        emit OwnershipTransferred(owner, newOwner);\n        owner = newOwner;\n    }\n\n    /**\n     * @dev Returns set minimum swap fee from BEP20 to ERC20\n     */\n    function setSwapFee(uint256 fee) onlyOwner external {\n        swapFee = fee;\n    }\n\n    /**\n     * @dev createSwapPair\n     */\n    function createSwapPair(bytes32 ethTxHash, address erc20Addr, string calldata name, string calldata symbol, uint8 decimals) onlyOwner external returns (address) {\n        require(swapMappingETH2BSC[erc20Addr] == address(0x0), \"duplicated swap pair\");\n\n        BEP20UpgradeableProxy proxyToken = new BEP20UpgradeableProxy(bep20Implementation, bep20ProxyAdmin, \"\");\n        IProxyInitialize token = IProxyInitialize(address(proxyToken));\n        token.initialize(name, symbol, decimals, 0, true, address(this));\n\n        swapMappingETH2BSC[erc20Addr] = address(token);\n        swapMappingBSC2ETH[address(token)] = erc20Addr;\n\n        emit SwapPairCreated(ethTxHash, address(token), erc20Addr, symbol, name, decimals);\n        return address(token);\n    }\n\n    /**\n     * @dev createSwapPairWithBep20\n     */\n    function createSwapPairWithBep20(bytes32 ethTxHash, address erc20Addr, string calldata name, string calldata symbol, uint8 decimals, address bep20Addr) onlyOwner external returns (address) {\n        require(swapMappingETH2BSC[erc20Addr] == address(0x0), \"duplicated swap pair\");\n        require(swapMappingBSC2ETH[bep20Addr] == address(0x0), \"duplicated bep20 token\");\n\n        string memory _name = IBEP20(bep20Addr).name();\n        string memory _symbol = IBEP20(bep20Addr).symbol();\n        uint8 _decimals = IBEP20(bep20Addr).decimals();\n\n        require(_compareString(_name, name), \"Not same name between tokens\");\n        require(_compareString(_symbol, symbol), \"Not same symbol between tokens\");\n        require(_decimals == decimals, \"Not same decimals between tokens\");\n\n        swapMappingETH2BSC[erc20Addr] = bep20Addr;\n        swapMappingBSC2ETH[bep20Addr] = erc20Addr;\n\n        emit SwapPairCreated(ethTxHash, bep20Addr, erc20Addr, symbol, name, decimals);\n        return bep20Addr;\n    }\n\n    function _compareString(string memory str1, string memory str2) pure internal returns(bool) {\n        if(keccak256(abi.encodePacked(str1)) == keccak256(abi.encodePacked(str2))) {\n            return true;\n        }else{\n            return false;\n        }\n    }\n\n    /**\n     * @dev fillETH2BSCSwap\n     */\n    function fillETH2BSCSwap(bytes32 ethTxHash, address erc20Addr, address toAddress, uint256 amount) onlyOwner external returns (bool) {\n        require(!filledETHTx[ethTxHash], \"eth tx filled already\");\n        address bscTokenAddr = swapMappingETH2BSC[erc20Addr];\n        require(bscTokenAddr != address(0x0), \"no swap pair for this token\");\n        filledETHTx[ethTxHash] = true;\n        ISwap(bscTokenAddr).mint(toAddress, amount);\n        emit SwapFilled(bscTokenAddr, ethTxHash, toAddress, amount);\n\n        return true;\n    }\n    /**\n     * @dev swapBSC2ETH\n     */\n    function swapBSC2ETH(address bep20Addr, uint256 amount) payable external notContract returns (bool) {\n        address erc20Addr = swapMappingBSC2ETH[bep20Addr];\n        require(erc20Addr != address(0x0), \"no swap pair for this token\");\n        require(msg.value == swapFee, \"swap fee not equal\");\n\n        ISwap(bep20Addr).burn(msg.sender, amount);\n        if (msg.value != 0) {\n            owner.transfer(msg.value);\n        }\n\n        emit SwapStarted(bep20Addr, erc20Addr, msg.sender, amount, msg.value);\n        return true;\n    }\n}",
  "sourcePath": "/work/50_DaoVentures_TechTest/dao-swap-contracts/contracts/BSCSwapAgentImpl.sol",
  "compiler": {
    "name": "solc",
    "version": "0.6.4+commit.1dca32f3.Emscripten.clang"
  },
  "schemaVersion": "3.3.4",
  "updatedAt": "2021-04-19T08:32:20.545Z",
  "devdoc": {
    "methods": {
      "createSwapPair(bytes32,address,string,string,uint8)": {
        "details": "createSwapPair"
      },
      "createSwapPairWithBep20(bytes32,address,string,string,uint8,address)": {
        "details": "createSwapPairWithBep20"
      },
      "fillETH2BSCSwap(bytes32,address,address,uint256)": {
        "details": "fillETH2BSCSwap"
      },
      "renounceOwnership()": {
        "details": "Leaves the contract without owner. It will not be possible to call `onlyOwner` functions anymore. Can only be called by the current owner.    * NOTE: Renouncing ownership will leave the contract without an owner, thereby removing any functionality that is only available to the owner."
      },
      "setSwapFee(uint256)": {
        "details": "Returns set minimum swap fee from BEP20 to ERC20"
      },
      "swapBSC2ETH(address,uint256)": {
        "details": "swapBSC2ETH"
      },
      "transferOwnership(address)": {
        "details": "Transfers ownership of the contract to a new account (`newOwner`). Can only be called by the current owner."
      }
    }
  },
  "userdoc": {
    "methods": {}
  }
}