{
  "contractName": "ETHSwapAgentImpl",
  "abi": [
    {
      "inputs": [],
      "stateMutability": "nonpayable",
      "type": "constructor"
    },
    {
      "anonymous": false,
      "inputs": [
        {
          "indexed": true,
          "internalType": "address",
          "name": "previousOwner",
          "type": "address"
        },
        {
          "indexed": true,
          "internalType": "address",
          "name": "newOwner",
          "type": "address"
        }
      ],
      "name": "OwnershipTransferred",
      "type": "event"
    },
    {
      "anonymous": false,
      "inputs": [
        {
          "indexed": true,
          "internalType": "address",
          "name": "erc20Addr",
          "type": "address"
        },
        {
          "indexed": true,
          "internalType": "bytes32",
          "name": "bscTxHash",
          "type": "bytes32"
        },
        {
          "indexed": true,
          "internalType": "address",
          "name": "toAddress",
          "type": "address"
        },
        {
          "indexed": false,
          "internalType": "uint256",
          "name": "amount",
          "type": "uint256"
        }
      ],
      "name": "SwapFilled",
      "type": "event"
    },
    {
      "anonymous": false,
      "inputs": [
        {
          "indexed": true,
          "internalType": "address",
          "name": "sponsor",
          "type": "address"
        },
        {
          "indexed": true,
          "internalType": "address",
          "name": "erc20Addr",
          "type": "address"
        },
        {
          "indexed": false,
          "internalType": "string",
          "name": "name",
          "type": "string"
        },
        {
          "indexed": false,
          "internalType": "string",
          "name": "symbol",
          "type": "string"
        },
        {
          "indexed": false,
          "internalType": "uint8",
          "name": "decimals",
          "type": "uint8"
        }
      ],
      "name": "SwapPairRegister",
      "type": "event"
    },
    {
      "anonymous": false,
      "inputs": [
        {
          "indexed": true,
          "internalType": "address",
          "name": "sponsor",
          "type": "address"
        },
        {
          "indexed": true,
          "internalType": "address",
          "name": "erc20Addr",
          "type": "address"
        },
        {
          "indexed": false,
          "internalType": "string",
          "name": "name",
          "type": "string"
        },
        {
          "indexed": false,
          "internalType": "string",
          "name": "symbol",
          "type": "string"
        },
        {
          "indexed": false,
          "internalType": "uint8",
          "name": "decimals",
          "type": "uint8"
        },
        {
          "indexed": true,
          "internalType": "address",
          "name": "bep20Addr",
          "type": "address"
        }
      ],
      "name": "SwapPairWithBep20Register",
      "type": "event"
    },
    {
      "anonymous": false,
      "inputs": [
        {
          "indexed": true,
          "internalType": "address",
          "name": "erc20Addr",
          "type": "address"
        },
        {
          "indexed": true,
          "internalType": "address",
          "name": "fromAddr",
          "type": "address"
        },
        {
          "indexed": false,
          "internalType": "uint256",
          "name": "amount",
          "type": "uint256"
        },
        {
          "indexed": false,
          "internalType": "uint256",
          "name": "feeAmount",
          "type": "uint256"
        }
      ],
      "name": "SwapStarted",
      "type": "event"
    },
    {
      "inputs": [
        {
          "internalType": "bytes32",
          "name": "",
          "type": "bytes32"
        }
      ],
      "name": "filledBSCTx",
      "outputs": [
        {
          "internalType": "bool",
          "name": "",
          "type": "bool"
        }
      ],
      "stateMutability": "view",
      "type": "function"
    },
    {
      "inputs": [],
      "name": "owner",
      "outputs": [
        {
          "internalType": "address payable",
          "name": "",
          "type": "address"
        }
      ],
      "stateMutability": "view",
      "type": "function"
    },
    {
      "inputs": [
        {
          "internalType": "address",
          "name": "",
          "type": "address"
        }
      ],
      "name": "registeredBEP20",
      "outputs": [
        {
          "internalType": "bool",
          "name": "",
          "type": "bool"
        }
      ],
      "stateMutability": "view",
      "type": "function"
    },
    {
      "inputs": [
        {
          "internalType": "address",
          "name": "",
          "type": "address"
        }
      ],
      "name": "registeredERC20",
      "outputs": [
        {
          "internalType": "bool",
          "name": "",
          "type": "bool"
        }
      ],
      "stateMutability": "view",
      "type": "function"
    },
    {
      "inputs": [],
      "name": "swapFee",
      "outputs": [
        {
          "internalType": "uint256",
          "name": "",
          "type": "uint256"
        }
      ],
      "stateMutability": "view",
      "type": "function"
    },
    {
      "inputs": [
        {
          "internalType": "uint256",
          "name": "fee",
          "type": "uint256"
        },
        {
          "internalType": "address payable",
          "name": "ownerAddr",
          "type": "address"
        }
      ],
      "name": "initialize",
      "outputs": [],
      "stateMutability": "nonpayable",
      "type": "function"
    },
    {
      "inputs": [],
      "name": "renounceOwnership",
      "outputs": [],
      "stateMutability": "nonpayable",
      "type": "function"
    },
    {
      "inputs": [
        {
          "internalType": "address payable",
          "name": "newOwner",
          "type": "address"
        }
      ],
      "name": "transferOwnership",
      "outputs": [],
      "stateMutability": "nonpayable",
      "type": "function"
    },
    {
      "inputs": [
        {
          "internalType": "uint256",
          "name": "fee",
          "type": "uint256"
        }
      ],
      "name": "setSwapFee",
      "outputs": [],
      "stateMutability": "nonpayable",
      "type": "function"
    },
    {
      "inputs": [
        {
          "internalType": "address",
          "name": "erc20Addr",
          "type": "address"
        }
      ],
      "name": "registerSwapPairToBSC",
      "outputs": [
        {
          "internalType": "bool",
          "name": "",
          "type": "bool"
        }
      ],
      "stateMutability": "nonpayable",
      "type": "function"
    },
    {
      "inputs": [
        {
          "internalType": "address",
          "name": "erc20Addr",
          "type": "address"
        },
        {
          "internalType": "address",
          "name": "bep20Addr",
          "type": "address"
        }
      ],
      "name": "registerSwapPairWithBep20",
      "outputs": [
        {
          "internalType": "bool",
          "name": "",
          "type": "bool"
        }
      ],
      "stateMutability": "nonpayable",
      "type": "function"
    },
    {
      "inputs": [
        {
          "internalType": "bytes32",
          "name": "bscTxHash",
          "type": "bytes32"
        },
        {
          "internalType": "address",
          "name": "erc20Addr",
          "type": "address"
        },
        {
          "internalType": "address",
          "name": "toAddress",
          "type": "address"
        },
        {
          "internalType": "uint256",
          "name": "amount",
          "type": "uint256"
        }
      ],
      "name": "fillBSC2ETHSwap",
      "outputs": [
        {
          "internalType": "bool",
          "name": "",
          "type": "bool"
        }
      ],
      "stateMutability": "nonpayable",
      "type": "function"
    },
    {
      "inputs": [
        {
          "internalType": "address",
          "name": "erc20Addr",
          "type": "address"
        },
        {
          "internalType": "uint256",
          "name": "amount",
          "type": "uint256"
        }
      ],
      "name": "swapETH2BSC",
      "outputs": [
        {
          "internalType": "bool",
          "name": "",
          "type": "bool"
        }
      ],
      "stateMutability": "payable",
      "type": "function"
    }
  ],
  "bytecode": "0x608060405234801561001057600080fd5b50611947806100206000396000f3fe6080604052600436106100c25760003560e01c806389b156041161007f578063b175182c11610059578063b175182c14610288578063b9927a9c146102bb578063da35a26f146102e7578063f2fde38b14610320576100c2565b806389b15604146101db5780638da5cb5b1461020e5780639867df111461023f576100c2565b806334e19907146100c757806350877c77146100f35780635177fe301461013157806354cf2aeb1461016c5780635c13c15114610193578063715018a6146101c6575b600080fd5b3480156100d357600080fd5b506100f1600480360360208110156100ea57600080fd5b5035610353565b005b3480156100ff57600080fd5b5061011d6004803603602081101561011657600080fd5b50356103b0565b604080519115158252519081900360200190f35b34801561013d57600080fd5b5061011d6004803603604081101561015457600080fd5b506001600160a01b03813581169160200135166103c5565b34801561017857600080fd5b50610181610990565b60408051918252519081900360200190f35b34801561019f57600080fd5b5061011d600480360360208110156101b657600080fd5b50356001600160a01b0316610996565b3480156101d257600080fd5b506100f1610e79565b3480156101e757600080fd5b5061011d600480360360208110156101fe57600080fd5b50356001600160a01b0316610f1b565b34801561021a57600080fd5b50610223610f30565b604080516001600160a01b039092168252519081900360200190f35b34801561024b57600080fd5b5061011d6004803603608081101561026257600080fd5b508035906001600160a01b03602082013581169160408101359091169060600135610f3f565b34801561029457600080fd5b5061011d600480360360208110156102ab57600080fd5b50356001600160a01b03166110e3565b61011d600480360360408110156102d157600080fd5b506001600160a01b0381351690602001356110f8565b3480156102f357600080fd5b506100f16004803603604081101561030a57600080fd5b50803590602001356001600160a01b0316611304565b34801561032c57600080fd5b506100f16004803603602081101561034357600080fd5b50356001600160a01b03166113c8565b61035b6114c1565b6004546001600160a01b039081169116146103ab576040805162461bcd60e51b815260206004820181905260248201526000805160206118c8833981519152604482015290519081900360640190fd5b600555565b60036020526000908152604090205460ff1681565b60006103cf6114c1565b6004546001600160a01b0390811691161461041f576040805162461bcd60e51b815260206004820181905260248201526000805160206118c8833981519152604482015290519081900360640190fd5b6001600160a01b03831660009081526001602052604090205460ff1615610482576040805162461bcd60e51b8152602060048201526012602482015271185b1c9958591e481c9959da5cdd195c995960721b604482015290519081900360640190fd5b6001600160a01b03821660009081526002602052604090205460ff16156104f0576040805162461bcd60e51b815260206004820152601e60248201527f424550323020746f6b656e20616c726561647920726567697374657265640000604482015290519081900360640190fd5b6060836001600160a01b03166306fdde036040518163ffffffff1660e01b815260040160006040518083038186803b15801561052b57600080fd5b505afa15801561053f573d6000803e3d6000fd5b505050506040513d6000823e601f3d908101601f19168201604052602081101561056857600080fd5b8101908080516040519392919084600160201b82111561058757600080fd5b90830190602082018581111561059c57600080fd5b8251600160201b8111828201881017156105b557600080fd5b82525081516020918201929091019080838360005b838110156105e25781810151838201526020016105ca565b50505050905090810190601f16801561060f5780820380516001836020036101000a031916815260200191505b5060405250505090506060846001600160a01b03166395d89b416040518163ffffffff1660e01b815260040160006040518083038186803b15801561065357600080fd5b505afa158015610667573d6000803e3d6000fd5b505050506040513d6000823e601f3d908101601f19168201604052602081101561069057600080fd5b8101908080516040519392919084600160201b8211156106af57600080fd5b9083019060208201858111156106c457600080fd5b8251600160201b8111828201881017156106dd57600080fd5b82525081516020918201929091019080838360005b8381101561070a5781810151838201526020016106f2565b50505050905090810190601f1680156107375780820380516001836020036101000a031916815260200191505b5060405250505090506000856001600160a01b031663313ce5676040518163ffffffff1660e01b815260040160206040518083038186803b15801561077b57600080fd5b505afa15801561078f573d6000803e3d6000fd5b505050506040513d60208110156107a557600080fd5b505183519091506107ea576040805162461bcd60e51b815260206004820152600a602482015269656d707479206e616d6560b01b604482015290519081900360640190fd5b600082511161082f576040805162461bcd60e51b815260206004820152600c60248201526b195b5c1d1e481cde5b589bdb60a21b604482015290519081900360640190fd5b6001600160a01b038087166000818152600160208181526040808420805460ff199081168517909155958b16808552600283528185208054909716909317909555845160ff87169581019590955260608086528851908601528751919433937fe4cc2e414c04acba9a3cc7d44ca86f78450e6af27fefe7417d45374c061669ab938a938a938a939092839283810192608085019291890191908190849084905b838110156108e75781810151838201526020016108cf565b50505050905090810190601f1680156109145780820380516001836020036101000a031916815260200191505b50838103825285518152855160209182019187019080838360005b8381101561094757818101518382015260200161092f565b50505050905090810190601f1680156109745780820380516001836020036101000a031916815260200191505b509550505050505060405180910390a450600195945050505050565b60055481565b6001600160a01b03811660009081526001602052604081205460ff16156109f9576040805162461bcd60e51b8152602060048201526012602482015271185b1c9958591e481c9959da5cdd195c995960721b604482015290519081900360640190fd5b6060826001600160a01b03166306fdde036040518163ffffffff1660e01b815260040160006040518083038186803b158015610a3457600080fd5b505afa158015610a48573d6000803e3d6000fd5b505050506040513d6000823e601f3d908101601f191682016040526020811015610a7157600080fd5b8101908080516040519392919084600160201b821115610a9057600080fd5b908301906020820185811115610aa557600080fd5b8251600160201b811182820188101715610abe57600080fd5b82525081516020918201929091019080838360005b83811015610aeb578181015183820152602001610ad3565b50505050905090810190601f168015610b185780820380516001836020036101000a031916815260200191505b5060405250505090506060836001600160a01b03166395d89b416040518163ffffffff1660e01b815260040160006040518083038186803b158015610b5c57600080fd5b505afa158015610b70573d6000803e3d6000fd5b505050506040513d6000823e601f3d908101601f191682016040526020811015610b9957600080fd5b8101908080516040519392919084600160201b821115610bb857600080fd5b908301906020820185811115610bcd57600080fd5b8251600160201b811182820188101715610be657600080fd5b82525081516020918201929091019080838360005b83811015610c13578181015183820152602001610bfb565b50505050905090810190601f168015610c405780820380516001836020036101000a031916815260200191505b5060405250505090506000846001600160a01b031663313ce5676040518163ffffffff1660e01b815260040160206040518083038186803b158015610c8457600080fd5b505afa158015610c98573d6000803e3d6000fd5b505050506040513d6020811015610cae57600080fd5b50518351909150610cf3576040805162461bcd60e51b815260206004820152600a602482015269656d707479206e616d6560b01b604482015290519081900360640190fd5b6000825111610d38576040805162461bcd60e51b815260206004820152600c60248201526b195b5c1d1e481cde5b589bdb60a21b604482015290519081900360640190fd5b6001600160a01b0385166000818152600160208181526040808420805460ff1916909317909255815160ff8616928101929092526060808352875190830152865133937ffe3bd005e346323fa452df8cafc28c55b99e3766ba8750571d139c6cf5bc08a0938993899389938392838101926080850192918901918190849084905b83811015610dd1578181015183820152602001610db9565b50505050905090810190601f168015610dfe5780820380516001836020036101000a031916815260200191505b50838103825285518152855160209182019187019080838360005b83811015610e31578181015183820152602001610e19565b50505050905090810190601f168015610e5e5780820380516001836020036101000a031916815260200191505b509550505050505060405180910390a3506001949350505050565b610e816114c1565b6004546001600160a01b03908116911614610ed1576040805162461bcd60e51b815260206004820181905260248201526000805160206118c8833981519152604482015290519081900360640190fd5b6004546040516000916001600160a01b0316907f8be0079c531659141344cd1fd0a4f28419497f9722a3daafe3b4186f6b6457e0908390a3600480546001600160a01b0319169055565b60016020526000908152604090205460ff1681565b6004546001600160a01b031681565b6000610f496114c1565b6004546001600160a01b03908116911614610f99576040805162461bcd60e51b815260206004820181905260248201526000805160206118c8833981519152604482015290519081900360640190fd5b60008581526003602052604090205460ff1615610ff5576040805162461bcd60e51b81526020600482015260156024820152746273632074782066696c6c656420616c726561647960581b604482015290519081900360640190fd5b6001600160a01b03841660009081526001602052604090205460ff16611059576040805162461bcd60e51b81526020600482015260146024820152733737ba103932b3b4b9ba32b932b2103a37b5b2b760611b604482015290519081900360640190fd5b6000858152600360205260409020805460ff1916600117905561108c6001600160a01b038516848463ffffffff6114c516565b826001600160a01b031685856001600160a01b03167f3bebd9a738291e69898b5dbfadb6329b4b09fc648bdef68762928e521463abd9856040518082815260200191505060405180910390a4506001949350505050565b60026020526000908152604090205460ff1681565b600061110333611517565b15611155576040805162461bcd60e51b815260206004820152601f60248201527f636f6e7472616374206973206e6f7420616c6c6f77656420746f207377617000604482015290519081900360640190fd5b3332146111a9576040805162461bcd60e51b815260206004820152601c60248201527f6e6f2070726f787920636f6e747261637420697320616c6c6f77656400000000604482015290519081900360640190fd5b6001600160a01b03831660009081526001602052604090205460ff1661120d576040805162461bcd60e51b81526020600482015260146024820152733737ba103932b3b4b9ba32b932b2103a37b5b2b760611b604482015290519081900360640190fd5b6005543414611258576040805162461bcd60e51b81526020600482015260126024820152711cddd85c08199959481b9bdd08195c5d585b60721b604482015290519081900360640190fd5b6112736001600160a01b03841633308563ffffffff61151d16565b34156112b4576004546040516001600160a01b03909116903480156108fc02916000818181858888f193505050501580156112b2573d6000803e3d6000fd5b505b60408051838152346020820152815133926001600160a01b038716927ff60309f865a6aa297da5fac6188136a02e5acfdf6e8f6d35257a9f4e9653170f929081900390910190a350600192915050565b600054610100900460ff168061131d575061131d61157d565b8061132b575060005460ff16155b6113665760405162461bcd60e51b815260040180806020018281038252602e81526020018061189a602e913960400191505060405180910390fd5b600054610100900460ff16158015611391576000805460ff1961ff0019909116610100171660011790555b6005839055600480546001600160a01b0319166001600160a01b03841617905580156113c3576000805461ff00191690555b505050565b6113d06114c1565b6004546001600160a01b03908116911614611420576040805162461bcd60e51b815260206004820181905260248201526000805160206118c8833981519152604482015290519081900360640190fd5b6001600160a01b0381166114655760405162461bcd60e51b815260040180806020018281038252602681526020018061184e6026913960400191505060405180910390fd5b6004546040516001600160a01b038084169216907f8be0079c531659141344cd1fd0a4f28419497f9722a3daafe3b4186f6b6457e090600090a3600480546001600160a01b0319166001600160a01b0392909216919091179055565b3390565b604080516001600160a01b038416602482015260448082018490528251808303909101815260649091019091526020810180516001600160e01b031663a9059cbb60e01b1790526113c3908490611583565b3b151590565b604080516001600160a01b0380861660248301528416604482015260648082018490528251808303909101815260849091019091526020810180516001600160e01b03166323b872dd60e01b179052611577908590611583565b50505050565b303b1590565b60606115d8826040518060400160405280602081526020017f5361666545524332303a206c6f772d6c6576656c2063616c6c206661696c6564815250856001600160a01b03166116349092919063ffffffff16565b8051909150156113c3578080602001905160208110156115f757600080fd5b50516113c35760405162461bcd60e51b815260040180806020018281038252602a8152602001806118e8602a913960400191505060405180910390fd5b6060611643848460008561164d565b90505b9392505050565b60608247101561168e5760405162461bcd60e51b81526004018080602001828103825260268152602001806118746026913960400191505060405180910390fd5b61169785611517565b6116e8576040805162461bcd60e51b815260206004820152601d60248201527f416464726573733a2063616c6c20746f206e6f6e2d636f6e7472616374000000604482015290519081900360640190fd5b60006060866001600160a01b031685876040518082805190602001908083835b602083106117275780518252601f199092019160209182019101611708565b6001836020036101000a03801982511681845116808217855250505050505090500191505060006040518083038185875af1925050503d8060008114611789576040519150601f19603f3d011682016040523d82523d6000602084013e61178e565b606091505b509150915061179e8282866117a9565b979650505050505050565b606083156117b8575081611646565b8251156117c85782518084602001fd5b8160405162461bcd60e51b81526004018080602001828103825283818151815260200191508051906020019080838360005b838110156118125781810151838201526020016117fa565b50505050905090810190601f16801561183f5780820380516001836020036101000a031916815260200191505b509250505060405180910390fdfe4f776e61626c653a206e6577206f776e657220697320746865207a65726f2061646472657373416464726573733a20696e73756666696369656e742062616c616e636520666f722063616c6c496e697469616c697a61626c653a20636f6e747261637420697320616c726561647920696e697469616c697a65644f776e61626c653a2063616c6c6572206973206e6f7420746865206f776e65725361666545524332303a204552433230206f7065726174696f6e20646964206e6f742073756363656564a2646970667358221220525f9c5feee69666fb13762ce7695c075e26029415014793fa24439ccba3d39b64736f6c63430006040033",
  "source": "pragma solidity 0.6.4;\n\nimport \"./interfaces/IERC20Query.sol\";\nimport \"openzeppelin-solidity/contracts/proxy/Initializable.sol\";\nimport \"openzeppelin-solidity/contracts/GSN/Context.sol\";\nimport \"openzeppelin-solidity/contracts/token/ERC20/SafeERC20.sol\";\n\ncontract ETHSwapAgentImpl is Context, Initializable {\n\n    using SafeERC20 for IERC20;\n\n    mapping(address => bool) public registeredERC20;\n    mapping(address => bool) public registeredBEP20;\n    mapping(bytes32 => bool) public filledBSCTx;\n    address payable public owner;\n    uint256 public swapFee;\n\n    event OwnershipTransferred(address indexed previousOwner, address indexed newOwner);\n    event SwapPairRegister(address indexed sponsor,address indexed erc20Addr, string name, string symbol, uint8 decimals);\n    event SwapPairWithBep20Register(address indexed sponsor,address indexed erc20Addr, string name, string symbol, uint8 decimals, address indexed bep20Addr);\n    event SwapStarted(address indexed erc20Addr, address indexed fromAddr, uint256 amount, uint256 feeAmount);\n    event SwapFilled(address indexed erc20Addr, bytes32 indexed bscTxHash, address indexed toAddress, uint256 amount);\n\n    constructor() public {\n    }\n\n    /**\n     * @dev Throws if called by any account other than the owner.\n     */\n    modifier onlyOwner() {\n        require(owner == _msgSender(), \"Ownable: caller is not the owner\");\n        _;\n    }\n\n    function initialize(uint256 fee, address payable ownerAddr) public initializer {\n        swapFee = fee;\n        owner = ownerAddr;\n    }\n\n    modifier notContract() {\n        require(!isContract(msg.sender), \"contract is not allowed to swap\");\n        require(msg.sender == tx.origin, \"no proxy contract is allowed\");\n       _;\n    }\n\n    function isContract(address addr) internal view returns (bool) {\n        uint size;\n        assembly { size := extcodesize(addr) }\n        return size > 0;\n    }\n\n    /**\n        * @dev Leaves the contract without owner. It will not be possible to call\n        * `onlyOwner` functions anymore. Can only be called by the current owner.\n        *\n        * NOTE: Renouncing ownership will leave the contract without an owner,\n        * thereby removing any functionality that is only available to the owner.\n        */\n    function renounceOwnership() public onlyOwner {\n        emit OwnershipTransferred(owner, address(0));\n        owner = address(0);\n    }\n\n    /**\n     * @dev Transfers ownership of the contract to a new account (`newOwner`).\n     * Can only be called by the current owner.\n     */\n    function transferOwnership(address payable newOwner) public onlyOwner {\n        require(newOwner != address(0), \"Ownable: new owner is the zero address\");\n        emit OwnershipTransferred(owner, newOwner);\n        owner = newOwner;\n    }\n\n    /**\n     * @dev Returns set minimum swap fee from ERC20 to BEP20\n     */\n    function setSwapFee(uint256 fee) onlyOwner external {\n        swapFee = fee;\n    }\n\n    function registerSwapPairToBSC(address erc20Addr) external returns (bool) {\n        require(!registeredERC20[erc20Addr], \"already registered\");\n\n        string memory name = IERC20Query(erc20Addr).name();\n        string memory symbol = IERC20Query(erc20Addr).symbol();\n        uint8 decimals = IERC20Query(erc20Addr).decimals();\n\n        require(bytes(name).length>0, \"empty name\");\n        require(bytes(symbol).length>0, \"empty symbol\");\n\n        registeredERC20[erc20Addr] = true;\n\n        emit SwapPairRegister(msg.sender, erc20Addr, name, symbol, decimals);\n        return true;\n    }\n\n    function registerSwapPairWithBep20(address erc20Addr, address bep20Addr) onlyOwner external returns (bool) {\n        require(!registeredERC20[erc20Addr], \"already registered\");\n        require(!registeredBEP20[bep20Addr], \"BEP20 token already registered\");\n\n        string memory name = IERC20Query(erc20Addr).name();\n        string memory symbol = IERC20Query(erc20Addr).symbol();\n        uint8 decimals = IERC20Query(erc20Addr).decimals();\n\n        require(bytes(name).length>0, \"empty name\");\n        require(bytes(symbol).length>0, \"empty symbol\");\n\n        registeredERC20[erc20Addr] = true;\n        registeredBEP20[bep20Addr] = true;\n\n        emit SwapPairWithBep20Register(msg.sender, erc20Addr, name, symbol, decimals, bep20Addr);\n        return true;\n    }\n\n    function fillBSC2ETHSwap(bytes32 bscTxHash, address erc20Addr, address toAddress, uint256 amount) onlyOwner external returns (bool) {\n        require(!filledBSCTx[bscTxHash], \"bsc tx filled already\");\n        require(registeredERC20[erc20Addr], \"not registered token\");\n\n        filledBSCTx[bscTxHash] = true;\n        IERC20(erc20Addr).safeTransfer(toAddress, amount);\n\n        emit SwapFilled(erc20Addr, bscTxHash, toAddress, amount);\n        return true;\n    }\n\n    function swapETH2BSC(address erc20Addr, uint256 amount) payable external notContract returns (bool) {\n        require(registeredERC20[erc20Addr], \"not registered token\");\n        require(msg.value == swapFee, \"swap fee not equal\");\n\n        IERC20(erc20Addr).safeTransferFrom(msg.sender, address(this), amount);\n        if (msg.value != 0) {\n            owner.transfer(msg.value);\n        }\n\n        emit SwapStarted(erc20Addr, msg.sender, amount, msg.value);\n        return true;\n    }\n}",
  "sourcePath": "/work/50_DaoVentures_TechTest/dao-swap-contracts/contracts/ETHSwapAgentImpl.sol",
  "compiler": {
    "name": "solc",
    "version": "0.6.4+commit.1dca32f3.Emscripten.clang"
  },
  "schemaVersion": "3.3.4",
  "updatedAt": "2021-04-19T08:32:20.553Z",
  "devdoc": {
    "methods": {
      "renounceOwnership()": {
        "details": "Leaves the contract without owner. It will not be possible to call `onlyOwner` functions anymore. Can only be called by the current owner.        * NOTE: Renouncing ownership will leave the contract without an owner, thereby removing any functionality that is only available to the owner."
      },
      "setSwapFee(uint256)": {
        "details": "Returns set minimum swap fee from ERC20 to BEP20"
      },
      "transferOwnership(address)": {
        "details": "Transfers ownership of the contract to a new account (`newOwner`). Can only be called by the current owner."
      }
    }
  },
  "userdoc": {
    "methods": {}
  }
}